S01800006275696C642F6D6963617A2F6D61696E2E73726563E5
S11300000C9449000C9468000C9468000C946800EB
S11300100C9468000C9468000C9468000C946800BC
S11300200C9468000C9468000C9468000C946800AC
S11300300C9468000C9468000C9468000C9495036C
S11300400C9412030C9468000C9468000C946800DF
S11300500C9468000C9423030C9468000C946800BE
S11300600C9468000C9468000C9468000C9468006C
S11300700C9468000C9468000C9468000C9468005C
S11300800C9468000C9468000C94680000081C1818
S1130090141011241FBECFEFD0E1DEBFCDBF11E09D
S11300A0A0E0B1E0E2E9FEE000E00BBF02C007908F
S11300B00D92A230B107D9F71CE1A2E0B1E001C072
S11300C01D92A939B107E1F70E945A060C9448071A
S11300D00C9400008FB7F894992708958FBF089562
S11300E0282F9FB7F894E82FFF27E859F34E808113
S11300F08F3F81F4E091981CE21771F40BC02093B8
S1130100941C04C0FF27E859F34E20832093981CC5
S113011020E007C025E005C08091941C8F3F91F733
S1130120EECF892F99278FBF822F99270895809129
S1130130971C882319F02FE170E002C078E02EE1CB
S1130140622FEFB7F89480916F1C8E7F80936F1CA1
S113015087B1982F9F71829586958695837019F043
S113016080E090E012C0822F8850863118F081E040
S113017090E00BC040E050E03327892F99272817DF
S1130180390711F441E050E0CA01982F9170990F9A
S113019080916F1C8178262F2F71422F440F440FBA
S11301A0892B842B80936F1C332727B9783059F51A
S11301B08091951C9091961C21E08638920718F046
S11301C087E090E01FC0833C910518F086E090E042
S11301D019C08136910518F085E090E013C0803392
S11301E0910518F084E090E00DC08831910518F075
S11301F083E090E007C00C9718F082E090E002C022
S113020080E090E0782F7770887D872B886D992720
S113021086B98E2F99278FBF0895EF920F931F935E
S1130220AE2D99E0899FF0011124E958F34E4083E3
S11302305183628373830483158326833783A17078
S113024080858E7F8A2B8260808781E00E94700087
S11302501F910F91EF9008957FB7F89462B72091A2
S1130260601C3091611C4091621C5091631C06B665
S113027001FE0FC081B792B7280F311D411D511DDA
S11302802F5F3F4F4F4F5F4F290F311D411D511DB0
S113029004C0260F311D411D511D872F99278FBF83
S11302A0CA01B90108952F923F924F925F927F92B3
S11302B08F929F92AF92BF92CF92DF92EF92FF9272
S11302C00F931F93CF93DF93CDB7DEB729970FB664
S11302D0F894DEBF0FBECDBF6C01DC01A75AB44E4B
S11302E08C918F5F8C939927FC0113E0EE0FFF1F15
S11302F01A95E1F7E81BF90BEC0DFD1D048320832F
S113030031834283538376836583F601E85AF44E3E
S113031080818F3F09F41082A0804D01A7C07A2C00
S11303207394B72C9DC0EA2CFF24C701F3E0880F17
S1130330991FFA95E1F78E199F098C0D9D1D9987D8
S11303408887DC014D915D916D917C910B2D112776
S11303509801E3E0220F331FEA95E1F7201B310BEC
S11303602C0D3D1DF90120803180428053802416DC
S1130370350646065706A0F5DE011196FC0187E016
S113038001900D928150E1F7D70153E0AA0FBB1FF2
S11303905A95E1F7AE19BF09F80143E0EE0FFF1FCC
S11303A04A95E1F7E01BF10BAC0DBD1DEC0DFD1DF5
S11303B087E001900D928150E1F7F80133E0EE0FF0
S11303C0FF1F3A95E1F7E01BF10BEC0DFD1DDE017B
S11303D0119687E00D900192815009F440C0FACF44
S11303E04215530564057505D1F5E885F9859481B1
S11303F0F9018481891798F5DE011196E885F9855C
S113040087E001900D928150E1F7D70123E0AA0F14
S1130410BB1F2A95E1F7AE19BF09F80193E0EE0F6F
S1130420FF1F9A95E1F7E01BF10BAC0DBD1DEC0D20
S1130430FD1D87E001900D928150E1F7F80183E002
S1130440EE0FFF1F8A95E1F7E01BF10BEC0DFD1D8C
S1130450DE01119687E00D9001928150E1F7B3948B
S1130460D4018C918B1508F05ECFA72CF401808108
S11304708A1508F054CF29960FB6F894DEBF0FBE44
S1130480CDBFDF91CF911F910F91FF90EF90DF903F
S1130490CF90BF90AF909F908F907F905F904F9040
S11304A03F902F9008950F932091721C2093731CFA
S11304B09091711C920F9093721C2093711C8A303E
S11304C0A0F4009102010F5F0093020101500E9409
S11304D02C019B01AC012F5F3F4F4F4F5F4F63E5F2
S11304E072E086E091E00E9453010F910895DF923B
S11304F0EF92FF920F931F938FB7F894282F33270F
S1130500D22E91B782B746B7981711F041FF02C0B7
S11305102FBF68C08091751C8823D1F10E942C01E3
S1130520E0908B1CF0908C1C00918D1C10918E1C03
S11305302091641C3091651C4091661C5091671C8D
S11305406E197F09800B910B621773078407950757
S113055028F01092751C86EE71E01CC02E0D3F1D14
S1130560401F511F8091601C9091611CA091621CDE
S1130570B091631C281B390B4A0B5B0B273E3105DA
S11305804105510528F4822F223018F482E001C07D
S113059086EE70E0682F615000B601FCFDCF82B793
S11305A0681709F46F5F2091601C3091611C4091C1
S11305B0621C5091631CDA01C9010196A11DB11D91
S11305C0860F911DA11DB11D82179307A407B507BE
S11305D010F4622F609561BFDFBE772319F080E0CD
S11305E00E9470001F910F91FF90EF90DF9008958B
S11305F0AFB7F894BB27E1E0E093751C60938B1CC4
S113060070938C1C80938D1C90938E1C2093641C7F
S11306103093651C4093661C5093671CAFBF0E94C7
S1130620770208951F920F920FB60F9211248F93A1
S113063083B783BF00B600FCFDCF8F910F900FBE30
S11306400F901F9018951F920F920FB60F921124BE
S11306502F933F934F935F936F937F938F939F93C6
S1130660AF93BF93EF93FF9344B155B178948FB791
S1130670F894992720916F1C322F36953170217090
S11306808FBF2223D9F433988091741C813021F0D8
S1130690823009F039C00AC0332351F050938A1CC8
S11306A04093891C85E00E9470002EC0332319F406
S11306B00E94970029C01092741C26C08FB7F8942A
S11306C099278FBF2FB7F894332786B1582F5770C7
S11306D0482F4072987D942B952B8074977B982B90
S11306E090619F77892F992786B9887D842B852BE4
S11306F087738061992786B9887D842B852B877BB6
S11307008069992786B92FBFFF91EF91BF91AF916F
S11307109F918F917F916F915F914F913F912F9115
S11307200F900FBE0F901F9018951F920F920FB647
S11307300F9211242F933F934F935F936F937F9363
S11307408F939F93AF93BF93EF93FF9383B783BF2D
S113075000B600FCFDCF81B799270196AA27BB27D5
S11307602091601C3091611C4091621C5091631C6B
S1130770280F391F4A1F5B1F2093601C3093611C94
S11307804093621C5093631C78940E947702FF91FB
S1130790EF91BF91AF919F918F917F916F915F91F5
S11307A04F913F912F910F900FBE0F901F9018956E
S11307B09F92AF92BF92CF92DF92EF92FF920F93EC
S11307C01F93CF93DF93CDB7DEB765970FB6F89439
S11307D0DEBF0FBECDBF5B016C0190907F1C91FE0C
S11307E020C02091771C3091781C4091791C509145
S11307F07A1CE0907B1CF0907C1C00917D1C109175
S11308007E1CDC01CB01821B930BA40BB50B8E1554
S11308109F05A007B10728F0E7E7FCE160E070E07E
S113082022C0E0E8FCE19090881C91FEB5C02091C4
S1130830801C3091811C4091821C5091831CE0905B
S1130840841CF090851C0091861C1091871CA21AB0
S1130850B30AC40AD50AAE14BF04C006D10608F40C
S11308609BC061E070E090FE04C080858D7F80872E
S113087008C02E0D3F1D401F511F2083318342832A
S11308805383662321F0613009F086C026C080912D
S11308900301882309F080C08FEF80935F1C80934D
S11308A05E1C81E08093721C009102010F5F009333
S11308B0020101500E942C019B01AC0163E572E02E
S11308C086E091E00E94530183E00E9470008091D1
S11308D003018F5F809303015FC080915E1C8F3F93
S11308E009F04AC059C080915E1C9927FC0123E09D
S11308F0EE0FFF1F2A95E1F7E81BF90BDE011F96A7
S1130900EA5FFE4F27E001900D922150E1F7FC01D0
S113091003E0EE0FFF1F0A95E1F7E81BF90BEA5F0E
S1130920FE4FDE011F9687E00D9001928150E1F7A2
S113093090915E1C80915F1C981731F48FEF809327
S11309405F1C80935E1C03C09F5F90935E1CDE015E
S11309501196FE013F9687E001900D928150E1F7D8
S1130960DE011896FE01319687E001900D928150C8
S1130970E1F7ED85FE850995E0900601F090070109
S113098000910801109109010E942C016E157F0548
S11309908007910708F0A7CF81E00E947000659658
S11309A00FB6F894DEBF0FBECDBFDF91CF911F917C
S11309B00F91FF90EF90DF90CF90BF90AF909F90FA
S11309C00895AF92BF92CF92DF92EF92FF920F936E
S11309D01F93833009F4C5C0843030F4882359F060
S11309E0813009F041C13AC0843009F4C7C0853070
S11309F009F03AC1DBC080916E1C882361F5209117
S1130A00901C3091911C4091921C5091931CEFB713
S1130A10F894FF2760918B1C70918C1C80918D1C25
S1130A2090918E1CE090641CF090651C0091661CF3
S1130A301091671C6E0D7F1D801F911FEFBF2093C7
S1130A40901C3093911C4093921C5093931C1092D1
S1130A506E1C0E94F8020E942C016EC00E942C01A0
S1130A605B016C018FB7F89499271092751C8FBFA6
S1130A7080917F1C81FF25C08091771C9091781C08
S1130A80A091791CB0917A1CA6019501281B390B01
S1130A904A0B5B0BE0907B1CF0907C1C00917D1C4E
S1130AA010917E1CE21AF30A040B150B3FEFE316B8
S1130AB03FEFF3063FEF03073FE7130711F061E051
S1130AC009C03FEFE32E3FEFF32E3FEF032F3FE745
S1130AD0132F60E08091881C81FF24C08091801CCA
S1130AE09091811CA091821CB091831CA601950158
S1130AF0281B390B4A0B5B0BDA01C9012091841CBA
S1130B003091851C4091861C5091871C281B390B01
S1130B104A0B5B0B2E153F05400751071CF4790166
S1130B208A0103C0662309F49FC01E141F04100623
S1130B3011062CF0C601B5010E94D80395C0E092BD
S1130B40901CF092911C0093921C1093931C81E0D2
S1130B5080936E1CA8019701C601B5010E94F8029A
S1130B6083C00E942C01AB01BC01EE2402E310E01F
S1130B7020E030E081E00E940D0176C02FB7F894A8
S1130B80332780918F1C8093010183E080930501BA
S1130B902FBF80910101882309F066C081E0809312
S1130BA0741C1092971C0E9497005EC01092741CD3
S1130BB08091971C882309F057C08FB7F894F82EBA
S1130BC080910501833009F040C0809101018823A0
S1130BD0E1F58091761C882309F040C038C09095D7
S1130BE0A923A0836093040125C06F5F7F4F613008
S1130BF0710511F460E070E0862F869586958695E0
S1130C00E82FFF27EA58F34EA081462F55279A0173
S1130C102770307081E090E002C0880F991F2A95F8
S1130C20E2F7982F8A2F8923D1F660177107E9F626
S1130C304FEF50E040938F1C8FEF8093010181E0D0
S1130C408093050184E00E947000FFBE0DC081E026
S1130C5080930101109205013798F7CF8091040128
S1130C60082F1127B801C1CF1F910F91FF90EF906A
S1130C70DF90CF90BF90AF9008958091941C8F3FE8
S1130C80B1F0282F3327F901E859F34E808180937E
S1130C90941C8F3F11F48093981C8FEF80832F3F17
S1130CA031F0822F0E94E10481E090E0089580E019
S1130CB090E00895EF920F931F931FB7F89446E0C6
S1130CC050E06FEF70E088E69CE10E9441078FEFEF
S1130CD08093941C8093981C81E08EBD88E080BF33
S1130CE083E083BF8CB59DB54AE72CB53DB5281785
S1130CF0390708F44150442311F0C901F6CF92B7E3
S1130D0082B78917E9F32CB53DB592B782B7891735
S1130D10E9F38CB59DB5821B930B409645E09695FF
S1130D2087954A95E1F79093961C8093951C13BE82
S1130D3083B78EBD8EB580BF12BE1DBC1CBC8FEFA9
S1130D4086BF86B780937C0080B7992787709070A0
S1130D50892BD1F715BA8FEF84BBD498DC9816B8D9
S1130D600E943D068823E1F71092761C80B78860C4
S1130D7080BF8BE083BF86EE81BF87B7826087BF69
S1130D800E9477020E943D068823E1F7812F99276C
S1130D908FBF78940E942C01AB01BC01EE2404E6C1
S1130DA010E020E030E080E00E940D018FB7F8945D
S1130DB0482F55274BC087B7992783709070892B8C
S1130DC019F4E5E0F0E013C080B7992787709070BC
S1130DD0892BD1F781B792B7891B8C3030F082B759
S1130DE0853F18F4E3E0F0E002C0E2E0F0E087B70A
S1130DF0887BC1F480917D008B7FA1F46E9912C031
S1130E008AB190919A00892B887161F48091740061
S1130E1082FD08C0379B03C081E090E005C085E0F7
S1130E2090E002C080E090E025B78E1708F4E82F28
S1130E30FF27E457FF4FE491237E2062E22BE5BFB6
S1130E4078948895F89485B78F7D85BF8091941C9C
S1130E508F3F09F4B0CF282F3327F901E859F34E17
S1130E6080818093941C8F3F11F48093981C8FEFA2
S1130E7080832F3F09F49FCF4FBF822F0E94E1044C
S1130E8095CFDC0101C06D9341505040E0F70895C7
S1050E90FFCF8E
S1050E920A014F
S9030000FC
