S01800006275696C642F6D6963617A2F6D61696E2E73726563E5
S11300000C9449000C9468000C9468000C946800EB
S11300100C9468000C9468000C9468000C946800BC
S11300200C9468000C9468000C9468000C946800AC
S11300300C9468000C9468000C9468000C9468029A
S11300400C94E5010C9468000C9468000C9468000E
S11300500C9468000C94F6010C9468000C946800ED
S11300600C9468000C9468000C9468000C9468006C
S11300700C9468000C9468000C9468000C9468005C
S11300800C9468000C9468000C94680000081C1818
S1130090141011241FBECFEFD0E1DEBFCDBF11E09D
S11300A0A0E0B1E0EAECFAE000E00BBF02C0079088
S11300B00D92AC30B107D9F711E0ACE0B1E001C06A
S11300C01D92AB33B107E1F70E9465040C946405FB
S11300D00C9400008FB7F894992708958FBF089562
S11300E0982F969596959695E1E2F1E0E90FF11D2A
S11300F0877021E030E002C0220F331F8A95E2F7B7
S11301008081822399270895282F9FB7F894E82F98
S1130110FF27E95EFE4F80818F3F81F4E0913A0131
S1130120E21771F40BC02093360104C0FF27E95E87
S1130130FE4F208320933A0120E007C025E005C04C
S1130140809136018F3F91F7EECF892F99278FBF8A
S1130150822F9927089580913901882319F02FE17E
S113016070E002C078E02EE1622FEFB7F89480913E
S11301701D018E7F80931D0187B1982F9F718295F9
S113018086958695837019F080E090E012C0822FE6
S11301908850863118F081E090E00BC040E050E0D8
S11301A03327892F99272817390711F441E050E0A4
S11301B0CA01982F9170990F80911D018178262F83
S11301C02F71422F440F440F892B842B80931D01E0
S11301D0332727B9783059F5809137019091380148
S11301E021E08638920718F087E090E01FC0833C36
S11301F0910518F086E090E019C08136910518F059
S113020085E090E013C08033910518F084E090E01D
S11302100DC08831910518F083E090E007C00C9779
S113022018F082E090E002C080E090E0782F7770D0
S1130230887D872B886D992786B98E2F99278FBF44
S113024008957FB7F89462B720910F01309110019F
S1130250409111015091120106B601FE0FC081B701
S113026092B7280F311D411D511D2F5F3F4F4F4F36
S11302705F4F290F311D411D511D04C0260F311D33
S1130280411D511D872F99278FBFCA01B9010895B8
S1130290DF92EF92FF920F931F938FB7F894282F5A
S11302A03327D22E91B782B746B7981711F041FF82
S11302B002C02FBF6AC0809120018823E1F10E940F
S11302C02101E0902D01F0902E0100912F01109159
S11302D03001209113013091140140911501509186
S11302E016016E197F09800B910B6217730784073F
S11302F0950720F01092200171E01EC02E0D3F1DC5
S1130300401F511F80910F0190911001A091110184
S1130310B0911201281B390B4A0B5B0B273E3105A8
S11303204105510540F4822F223010F070E005C0E1
S113033070E082E002C070E086EE682F615000B683
S113034001FCFDCF82B7681709F46F5F20910F019C
S1130350309110014091110150911201DA01C9014B
S11303600196A11DB11D860F911DA11DB11D8217FE
S11303709307A407B50710F4622F609561BFDFBE31
S1130380772319F080E00E9484001F910F91FF9061
S1130390EF90DF900895AFB7F894BB27E1E0E093C6
S11303A0200160932D0170932E0180932F0190936F
S11303B0300120931301309314014093150150939D
S11303C01601AFBF0E94480108951F920F920FB605
S11303D00F9211248F9383B783BF00B600FCFDCF27
S11303E08F910F900FBE0F901F9018951F920F9230
S11303F00FB60F9211242F933F934F935F936F93F4
S11304007F938F939F93AF93BF93EF93FF9344B1E5
S113041055B178948FB7F894992720911D01322F04
S11304203695317021708FBF2223D9F4339880918F
S11304301F01813021F0823009F039C00AC0332312
S113044051F050932C0140932B0184E00E948400CE
S11304502EC0332319F40E94AB0029C010921F014F
S113046026C08FB7F89499278FBF2FB7F8943327F6
S113047086B1582F5770482F4072987D942B952B36
S11304808074977B982B90619F77892F992786B9E1
S1130490887D842B852B87738061992786B9887D15
S11304A0842B852B877B8069992786B92FBFFF9181
S11304B0EF91BF91AF919F918F917F916F915F91D8
S11304C04F913F912F910F900FBE0F901F90189551
S11304D01F920F920FB60F9211242F933F934F93B5
S11304E05F936F937F938F939F93AF93BF93EF9398
S11304F0FF9383B783BF00B600FCFDCF81B7992774
S11305000196AA27BB2720910F0130911001409139
S1130510110150911201280F391F4A1F5B1F2093AC
S11305200F013093100140931101509312017894FC
S11305300E944801FF91EF91BF91AF919F918F91DC
S11305407F916F915F914F913F912F910F900FBECB
S11305500F901F901895EF92FF920F931F93E091C5
S11305602A01E1FF7BC020912201309123014091B7
S1130570240150912501E0902601F090270100917B
S1130580280110912901621B730B840B950B6E15C6
S11305907F058007910708F461C0E0FF04C0ED7F88
S11305A0E0932A010CC02E0D3F1D401F511F2093C4
S11305B0220130932301409324015093250180E0CC
S11305C091E08550914059F480910C01882319F4ED
S11305D081E080930C0182E00E9484003FC08FB7C9
S11305E0F894082F112780910E01882341F581E0AA
S11305F080930E01109231010FBF8FB7F8949927A1
S1130600379A8FBF8FB7F894082F1127902F8091B6
S11306100A01813091F480910E01813021F483E04C
S11306200E9484001AC0823041F480913101809389
S11306300A0183E080930E0110C09FBF0FC0809118
S11306403101882351F080E00E947000882329F44E
S1130650809121018160809321010FBF81E00E947C
S113066084001F910F91FF90EF900895CF92DF9235
S1130670EF92FF920F931F93D82E21E0821709F473
S11306803EC0821748F033E0831709F484C044E085
S1130690841709F0F6C096C080911C01882361F587
S11306A02091320130913301409134015091350150
S11306B0EFB7F894FF2760912D0170912E0180917E
S11306C02F0190913001E0901301F09014010091FA
S11306D01501109116016E0D7F1D801F911FEFBF34
S11306E02093320130933301409334015093350108
S11306F010921C010E94CB010E9421013AC00E9469
S113070021017B018C018FB7F89499271092200165
S11307108FBF80912A0181FFB4C080912201909102
S11307202301A0912401B0912501A8019701281B60
S1130730390B4A0B5B0BDA01C90120912601309178
S113074027014091280150912901281B390B4A0B9C
S11307505B0B2F3F8FEF38078FEF48078FE7580762
S113076009F48FC012161306140615062CF0C801DE
S1130770B7010E94AB0285C020933201309333014C
S11307804093340150933501D0921C01C801B70144
S11307900E94CB0176C08FB7F8949927209131013C
S11307A020930A01D0920E018FBF80910A01882301
S11307B009F067C081E080931F01109239010E9403
S11307C0AB005FC010921F0180913901882309F0AA
S11307D058C08FB7F894C82E80910E01833009F069
S11307E041C080910A018823E9F580912101882381
S11307F009F041C039C0ED2DE695E695E695FF2751
S11308004D2D5527EF5DFE4F9A012770307081E022
S113081090E002C0880F991F2A95E2F78095208105
S11308202823208300930D0112C00F5F1F4F013056
S1130830110511F400E010E0D02E802F0E9470000A
S11308408823C9F60E151F0581F74FEF50E040933A
S113085031018FEF80930A0181E080930E0183E0E0
S11308600E948400CFBE0DC081E080930A011092E3
S11308700E013798F7CF80910D01E82EFF248701F0
S1130880D4CF1F910F91FF90EF90DF90CF900895F8
S1130890809136018F3FB1F0282F3327F901E95EAB
S11308A0FE4F8081809336018F3F11F480933A018B
S11308B08FEF80832F3F31F0822F0E94360381E037
S11308C090E0089580E090E008951F931FB7F89496
S11308D045E050E06FEF70E087E191E00E945D0534
S11308E08FEF8093360180933A0181E08EBD88E0DA
S11308F080BF83E083BF8CB59DB54AE72CB53DB579
S11309002817390708F44150442311F0C901F6CFE0
S113091092B782B78917E9F32CB53DB592B782B780
S11309208917E9F38CB59DB5821B930B409625E09E
S1130930969587952A95E1F790933801809337012E
S113094013BE83B78EBD8EB580BF12BE1DBC1CBC4A
S11309508FEF86BF86B780937C0080B79927877016
S11309609070892BD1F715BA8FEF84BBD498DC989B
S113097016B80E9448048823E1F71092210180B739
S1130980886080BF8BE083BF86EE81BF87B78260BB
S113099087BF0E9448010E9448048823E1F7812F01
S11309A099278FBF78940E9421016093220170934C
S11309B02301809324019093250184E690E0A0E034
S11309C0B0E08093260190932701A0932801B0936F
S11309D0290180912A018E7F826080932A0181E01F
S11309E00E9484008FB7F894482F55274BC087B7CF
S11309F0992783709070892B19F4E5E0F0E013C017
S1130A0080B7992787709070892BD1F781B792B7F7
S1130A10891B8C3030F082B7853F18F4E3E0F0E0B6
S1130A2002C0E2E0F0E087B7887BC1F480917D00EA
S1130A308B7FA1F46E9912C08AB190919A00892B90
S1130A40887161F48091740082FD08C0379B03C0F3
S1130A5081E090E005C085E090E002C080E090E095
S1130A6025B78E1708F4E82FFF27E457FF4FE491CA
S1130A70237E2062E22BE5BF78948895F89485B7AD
S1130A808F7D85BF809136018F3F09F4B0CF282F29
S1130A903327F901E95EFE4F8081809336018F3F51
S1130AA011F480933A018FEF80832F3F09F49FCF95
S1130AB04FBF822F0E94360395CFDC0101C06D9396
S10D0AC041505040E0F70895FFCFC5
S10F0ACA7265616C0074657374000100B7
S9030000FC
